{
  "_format": "hh-sol-artifact-1",
  "contractName": "Hero",
  "sourceName": "contracts/Hero.sol",
  "abi": [
    {
      "inputs": [
        {
          "internalType": "address",
          "name": "_feeToSetter",
          "type": "address"
        }
      ],
      "stateMutability": "nonpayable",
      "type": "constructor"
    },
    {
      "anonymous": false,
      "inputs": [
        {
          "indexed": true,
          "internalType": "address",
          "name": "from",
          "type": "address"
        },
        {
          "indexed": true,
          "internalType": "address",
          "name": "to",
          "type": "address"
        },
        {
          "indexed": false,
          "internalType": "uint256",
          "name": "hero",
          "type": "uint256"
        }
      ],
      "name": "TransferHero",
      "type": "event"
    },
    {
      "inputs": [
        {
          "internalType": "enum Hero.Class",
          "name": "_class",
          "type": "uint8"
        }
      ],
      "name": "createHero",
      "outputs": [],
      "stateMutability": "payable",
      "type": "function"
    },
    {
      "inputs": [],
      "name": "feeToSetter",
      "outputs": [
        {
          "internalType": "address",
          "name": "",
          "type": "address"
        }
      ],
      "stateMutability": "view",
      "type": "function"
    },
    {
      "inputs": [],
      "name": "generateRamdom",
      "outputs": [
        {
          "internalType": "uint256",
          "name": "",
          "type": "uint256"
        }
      ],
      "stateMutability": "view",
      "type": "function"
    },
    {
      "inputs": [
        {
          "internalType": "uint256",
          "name": "hero",
          "type": "uint256"
        }
      ],
      "name": "getDex",
      "outputs": [
        {
          "internalType": "uint32",
          "name": "",
          "type": "uint32"
        }
      ],
      "stateMutability": "pure",
      "type": "function"
    },
    {
      "inputs": [
        {
          "internalType": "uint256",
          "name": "hero",
          "type": "uint256"
        }
      ],
      "name": "getHealth",
      "outputs": [
        {
          "internalType": "uint32",
          "name": "",
          "type": "uint32"
        }
      ],
      "stateMutability": "pure",
      "type": "function"
    },
    {
      "inputs": [
        {
          "internalType": "uint256",
          "name": "hero",
          "type": "uint256"
        }
      ],
      "name": "getHeroType",
      "outputs": [
        {
          "internalType": "enum Hero.Class",
          "name": "",
          "type": "uint8"
        }
      ],
      "stateMutability": "pure",
      "type": "function"
    },
    {
      "inputs": [],
      "name": "getHeroes",
      "outputs": [
        {
          "internalType": "uint256[]",
          "name": "",
          "type": "uint256[]"
        }
      ],
      "stateMutability": "view",
      "type": "function"
    },
    {
      "inputs": [
        {
          "internalType": "uint256",
          "name": "hero",
          "type": "uint256"
        }
      ],
      "name": "getIntellect",
      "outputs": [
        {
          "internalType": "uint32",
          "name": "",
          "type": "uint32"
        }
      ],
      "stateMutability": "pure",
      "type": "function"
    },
    {
      "inputs": [
        {
          "internalType": "uint256",
          "name": "hero",
          "type": "uint256"
        }
      ],
      "name": "getMagic",
      "outputs": [
        {
          "internalType": "uint32",
          "name": "",
          "type": "uint32"
        }
      ],
      "stateMutability": "pure",
      "type": "function"
    },
    {
      "inputs": [
        {
          "internalType": "uint256",
          "name": "hero",
          "type": "uint256"
        }
      ],
      "name": "getStrength",
      "outputs": [
        {
          "internalType": "uint32",
          "name": "",
          "type": "uint32"
        }
      ],
      "stateMutability": "pure",
      "type": "function"
    },
    {
      "inputs": [
        {
          "internalType": "address",
          "name": "_feeToSetter",
          "type": "address"
        }
      ],
      "name": "setFeeToSetter",
      "outputs": [],
      "stateMutability": "nonpayable",
      "type": "function"
    },
    {
      "inputs": [
        {
          "internalType": "uint256",
          "name": "hero",
          "type": "uint256"
        },
        {
          "internalType": "address",
          "name": "other",
          "type": "address"
        }
      ],
      "name": "transferHero",
      "outputs": [],
      "stateMutability": "nonpayable",
      "type": "function"
    }
  ],
  "bytecode": "0x60806040523480156200001157600080fd5b50604051620012b1380380620012b18339818101604052810190620000379190620000e8565b806000806101000a81548173ffffffffffffffffffffffffffffffffffffffff021916908373ffffffffffffffffffffffffffffffffffffffff160217905550506200011a565b600080fd5b600073ffffffffffffffffffffffffffffffffffffffff82169050919050565b6000620000b08262000083565b9050919050565b620000c281620000a3565b8114620000ce57600080fd5b50565b600081519050620000e281620000b7565b92915050565b6000602082840312156200010157620001006200007e565b5b60006200011184828501620000d1565b91505092915050565b611187806200012a6000396000f3fe6080604052600436106100a75760003560e01c80635e7e236d116100645780635e7e236d146101e25780639a8d2882146101fe578063a2e74af614610229578063b5f0f1b714610252578063e3f2b3cf1461028f578063e53fbda6146102cc576100a7565b8063094b7415146100ac5780632c254741146100d75780633acfcaa7146101005780633fc70f2c1461013d578063461d65bc1461017a5780635bc0a623146101a5575b600080fd5b3480156100b857600080fd5b506100c1610309565b6040516100ce9190610a41565b60405180910390f35b3480156100e357600080fd5b506100fe60048036038101906100f99190610ac3565b61032d565b005b34801561010c57600080fd5b5061012760048036038101906101229190610b03565b610504565b6040516101349190610b4f565b60405180910390f35b34801561014957600080fd5b50610164600480360381019061015f9190610b03565b610515565b6040516101719190610b4f565b60405180910390f35b34801561018657600080fd5b5061018f610526565b60405161019c9190610b79565b60405180910390f35b3480156101b157600080fd5b506101cc60048036038101906101c79190610b03565b61055b565b6040516101d99190610b4f565b60405180910390f35b6101fc60048036038101906101f79190610bb9565b61056c565b005b34801561020a57600080fd5b50610213610859565b6040516102209190610ca4565b60405180910390f35b34801561023557600080fd5b50610250600480360381019061024b9190610cc6565b6108ee565b005b34801561025e57600080fd5b5061027960048036038101906102749190610b03565b6109bf565b6040516102869190610b4f565b60405180910390f35b34801561029b57600080fd5b506102b660048036038101906102b19190610b03565b6109d0565b6040516102c39190610d6a565b60405180910390f35b3480156102d857600080fd5b506102f360048036038101906102ee9190610b03565b6109ef565b6040516103009190610b4f565b60405180910390f35b60008054906101000a900473ffffffffffffffffffffffffffffffffffffffff1681565b6000600160003373ffffffffffffffffffffffffffffffffffffffff1673ffffffffffffffffffffffffffffffffffffffff168152602001908152602001600020905060008180549050905060005b8181101561040b578483828154811061039857610397610d85565b5b9060005260206000200154036103f857826001836103b69190610de3565b815481106103c7576103c6610d85565b5b90600052602060002001548382815481106103e5576103e4610d85565b5b906000526020600020018190555061040b565b808061040390610e17565b91505061037c565b508180548061041d5761041c610e5f565b5b60019003818190600052602060002001600090559055600160008473ffffffffffffffffffffffffffffffffffffffff1673ffffffffffffffffffffffffffffffffffffffff1681526020019081526020016000208490806001815401808255809150506001900390600052602060002001600090919091909150558273ffffffffffffffffffffffffffffffffffffffff163373ffffffffffffffffffffffffffffffffffffffff167fbebab64de2018206ca4ee6f30b839279caa634c3f3d5c038dd77bac4a155882f866040516104f69190610b79565b60405180910390a350505050565b6000601f601183901c169050919050565b6000601f600783901c169050919050565b600044423360405160200161053d93929190610ef7565b6040516020818303038152906040528051906020012060001c905090565b6000601f601683901c169050919050565b66038d7ea4c680003410156105b6576040517f08c379a00000000000000000000000000000000000000000000000000000000081526004016105ad90610fb7565b60405180910390fd5b60008054906101000a900473ffffffffffffffffffffffffffffffffffffffff1673ffffffffffffffffffffffffffffffffffffffff166108fc349081150290604051600060405180830381858888f1935050505015801561061c573d6000803e3d6000fd5b506000600567ffffffffffffffff81111561063a57610639610fd7565b5b6040519080825280602002602001820160405280156106685781602001602082028036833780820191505090505b50905060028160008151811061068157610680610d85565b5b6020026020010181815250506007816001815181106106a3576106a2610d85565b5b602002602001018181525050600c816002815181106106c5576106c4610d85565b5b6020026020010181815250506011816003815181106106e7576106e6610d85565b5b60200260200101818152505060168160048151811061070957610708610d85565b5b60200260200101818152505060006005905060008360028111156107305761072f610cf3565b5b90505b60008261073e610526565b6107489190611035565b90506000600184600d61075b9190611066565b610763610526565b61076d9190611035565b6107779190611066565b905084828151811061078c5761078b610d85565b5b602002602001015181901b8317925083806107a6906110bc565b9450508484815181106107bc576107bb610d85565b5b60200260200101518583815181106107d7576107d6610d85565b5b60200260200101818152505050506000821161073357600160003373ffffffffffffffffffffffffffffffffffffffff1673ffffffffffffffffffffffffffffffffffffffff16815260200190815260200160002081908060018154018082558091505060019003906000526020600020016000909190919091505550505050565b6060600160003373ffffffffffffffffffffffffffffffffffffffff1673ffffffffffffffffffffffffffffffffffffffff1681526020019081526020016000208054806020026020016040519081016040528092919081815260200182805480156108e457602002820191906000526020600020905b8154815260200190600101908083116108d0575b5050505050905090565b60008054906101000a900473ffffffffffffffffffffffffffffffffffffffff1673ffffffffffffffffffffffffffffffffffffffff163373ffffffffffffffffffffffffffffffffffffffff161461097c576040517f08c379a000000000000000000000000000000000000000000000000000000000815260040161097390611131565b60405180910390fd5b806000806101000a81548173ffffffffffffffffffffffffffffffffffffffff021916908373ffffffffffffffffffffffffffffffffffffffff16021790555050565b6000601f600c83901c169050919050565b60006003821660028111156109e8576109e7610cf3565b5b9050919050565b6000601f600283901c169050919050565b600073ffffffffffffffffffffffffffffffffffffffff82169050919050565b6000610a2b82610a00565b9050919050565b610a3b81610a20565b82525050565b6000602082019050610a566000830184610a32565b92915050565b600080fd5b6000819050919050565b610a7481610a61565b8114610a7f57600080fd5b50565b600081359050610a9181610a6b565b92915050565b610aa081610a20565b8114610aab57600080fd5b50565b600081359050610abd81610a97565b92915050565b60008060408385031215610ada57610ad9610a5c565b5b6000610ae885828601610a82565b9250506020610af985828601610aae565b9150509250929050565b600060208284031215610b1957610b18610a5c565b5b6000610b2784828501610a82565b91505092915050565b600063ffffffff82169050919050565b610b4981610b30565b82525050565b6000602082019050610b646000830184610b40565b92915050565b610b7381610a61565b82525050565b6000602082019050610b8e6000830184610b6a565b92915050565b60038110610ba157600080fd5b50565b600081359050610bb381610b94565b92915050565b600060208284031215610bcf57610bce610a5c565b5b6000610bdd84828501610ba4565b91505092915050565b600081519050919050565b600082825260208201905092915050565b6000819050602082019050919050565b610c1b81610a61565b82525050565b6000610c2d8383610c12565b60208301905092915050565b6000602082019050919050565b6000610c5182610be6565b610c5b8185610bf1565b9350610c6683610c02565b8060005b83811015610c97578151610c7e8882610c21565b9750610c8983610c39565b925050600181019050610c6a565b5085935050505092915050565b60006020820190508181036000830152610cbe8184610c46565b905092915050565b600060208284031215610cdc57610cdb610a5c565b5b6000610cea84828501610aae565b91505092915050565b7f4e487b7100000000000000000000000000000000000000000000000000000000600052602160045260246000fd5b60038110610d3357610d32610cf3565b5b50565b6000819050610d4482610d22565b919050565b6000610d5482610d36565b9050919050565b610d6481610d49565b82525050565b6000602082019050610d7f6000830184610d5b565b92915050565b7f4e487b7100000000000000000000000000000000000000000000000000000000600052603260045260246000fd5b7f4e487b7100000000000000000000000000000000000000000000000000000000600052601160045260246000fd5b6000610dee82610a61565b9150610df983610a61565b925082821015610e0c57610e0b610db4565b5b828203905092915050565b6000610e2282610a61565b91507fffffffffffffffffffffffffffffffffffffffffffffffffffffffffffffffff8203610e5457610e53610db4565b5b600182019050919050565b7f4e487b7100000000000000000000000000000000000000000000000000000000600052603160045260246000fd5b6000819050919050565b610ea9610ea482610a61565b610e8e565b82525050565b60008160601b9050919050565b6000610ec782610eaf565b9050919050565b6000610ed982610ebc565b9050919050565b610ef1610eec82610a20565b610ece565b82525050565b6000610f038286610e98565b602082019150610f138285610e98565b602082019150610f238284610ee0565b601482019150819050949350505050565b600082825260208201905092915050565b7f506c656173652073656e64206d6f7265206d6f6e65792c206d696e696d756d2060008201527f302e303031206574686572000000000000000000000000000000000000000000602082015250565b6000610fa1602b83610f34565b9150610fac82610f45565b604082019050919050565b60006020820190508181036000830152610fd081610f94565b9050919050565b7f4e487b7100000000000000000000000000000000000000000000000000000000600052604160045260246000fd5b7f4e487b7100000000000000000000000000000000000000000000000000000000600052601260045260246000fd5b600061104082610a61565b915061104b83610a61565b92508261105b5761105a611006565b5b828206905092915050565b600061107182610a61565b915061107c83610a61565b9250827fffffffffffffffffffffffffffffffffffffffffffffffffffffffffffffffff038211156110b1576110b0610db4565b5b828201905092915050565b60006110c782610a61565b9150600082036110da576110d9610db4565b5b600182039050919050565b7f556e697377617056323a20464f5242494444454e000000000000000000000000600082015250565b600061111b601483610f34565b9150611126826110e5565b602082019050919050565b6000602082019050818103600083015261114a8161110e565b905091905056fea26469706673582212204e4b6423b3418afee826fe8e876619dc6048df0e121156bd1776c59e21d3719464736f6c634300080f0033",
  "linkReferences": {},
  "deployedLinkReferences": {}
}