{
  "_format": "hh-sol-artifact-1",
  "contractName": "Hero",
  "sourceName": "contracts/Hero.sol",
  "abi": [
    {
      "inputs": [
        {
          "internalType": "address",
          "name": "_feeToSetter",
          "type": "address"
        }
      ],
      "stateMutability": "nonpayable",
      "type": "constructor"
    },
    {
      "inputs": [
        {
          "internalType": "enum Hero.Class",
          "name": "_class",
          "type": "uint8"
        }
      ],
      "name": "createHero",
      "outputs": [],
      "stateMutability": "payable",
      "type": "function"
    },
    {
      "inputs": [],
      "name": "feeToSetter",
      "outputs": [
        {
          "internalType": "address",
          "name": "",
          "type": "address"
        }
      ],
      "stateMutability": "view",
      "type": "function"
    },
    {
      "inputs": [],
      "name": "generateRamdom",
      "outputs": [
        {
          "internalType": "uint256",
          "name": "",
          "type": "uint256"
        }
      ],
      "stateMutability": "view",
      "type": "function"
    },
    {
      "inputs": [
        {
          "internalType": "uint256",
          "name": "hero",
          "type": "uint256"
        }
      ],
      "name": "getHeroType",
      "outputs": [
        {
          "internalType": "enum Hero.Class",
          "name": "",
          "type": "uint8"
        }
      ],
      "stateMutability": "pure",
      "type": "function"
    },
    {
      "inputs": [],
      "name": "getHeroes",
      "outputs": [
        {
          "internalType": "uint256[]",
          "name": "",
          "type": "uint256[]"
        }
      ],
      "stateMutability": "view",
      "type": "function"
    },
    {
      "inputs": [
        {
          "internalType": "address",
          "name": "_feeToSetter",
          "type": "address"
        }
      ],
      "name": "setFeeToSetter",
      "outputs": [],
      "stateMutability": "nonpayable",
      "type": "function"
    },
    {
      "inputs": [
        {
          "internalType": "uint256",
          "name": "hero",
          "type": "uint256"
        },
        {
          "internalType": "address",
          "name": "other",
          "type": "address"
        }
      ],
      "name": "transferHero",
      "outputs": [],
      "stateMutability": "nonpayable",
      "type": "function"
    }
  ],
  "bytecode": "0x608060405234801561001057600080fd5b506040516200104538038062001045833981810160405281019061003491906100dd565b806000806101000a81548173ffffffffffffffffffffffffffffffffffffffff021916908373ffffffffffffffffffffffffffffffffffffffff1602179055505061010a565b600080fd5b600073ffffffffffffffffffffffffffffffffffffffff82169050919050565b60006100aa8261007f565b9050919050565b6100ba8161009f565b81146100c557600080fd5b50565b6000815190506100d7816100b1565b92915050565b6000602082840312156100f3576100f261007a565b5b6000610101848285016100c8565b91505092915050565b610f2b806200011a6000396000f3fe6080604052600436106100705760003560e01c80635e7e236d1161004e5780635e7e236d146100f45780639a8d288214610110578063a2e74af61461013b578063e3f2b3cf1461016457610070565b8063094b7415146100755780632c254741146100a0578063461d65bc146100c9575b600080fd5b34801561008157600080fd5b5061008a6101a1565b604051610097919061081f565b60405180910390f35b3480156100ac57600080fd5b506100c760048036038101906100c291906108a1565b6101c5565b005b3480156100d557600080fd5b506100de610337565b6040516100eb91906108f0565b60405180910390f35b61010e60048036038101906101099190610930565b61036c565b005b34801561011c57600080fd5b50610125610659565b6040516101329190610a1b565b60405180910390f35b34801561014757600080fd5b50610162600480360381019061015d9190610a3d565b6106ee565b005b34801561017057600080fd5b5061018b60048036038101906101869190610a6a565b6107bf565b6040516101989190610b0e565b60405180910390f35b60008054906101000a900473ffffffffffffffffffffffffffffffffffffffff1681565b6000600160003373ffffffffffffffffffffffffffffffffffffffff1673ffffffffffffffffffffffffffffffffffffffff168152602001908152602001600020905060008180549050905060005b818110156102a357848382815481106102305761022f610b29565b5b906000526020600020015403610290578260018361024e9190610b87565b8154811061025f5761025e610b29565b5b906000526020600020015483828154811061027d5761027c610b29565b5b90600052602060002001819055506102a3565b808061029b90610bbb565b915050610214565b50818054806102b5576102b4610c03565b5b60019003818190600052602060002001600090559055600160008473ffffffffffffffffffffffffffffffffffffffff1673ffffffffffffffffffffffffffffffffffffffff16815260200190815260200160002084908060018154018082558091505060019003906000526020600020016000909190919091505550505050565b600044423360405160200161034e93929190610c9b565b6040516020818303038152906040528051906020012060001c905090565b66038d7ea4c680003410156103b6576040517f08c379a00000000000000000000000000000000000000000000000000000000081526004016103ad90610d5b565b60405180910390fd5b60008054906101000a900473ffffffffffffffffffffffffffffffffffffffff1673ffffffffffffffffffffffffffffffffffffffff166108fc349081150290604051600060405180830381858888f1935050505015801561041c573d6000803e3d6000fd5b506000600567ffffffffffffffff81111561043a57610439610d7b565b5b6040519080825280602002602001820160405280156104685781602001602082028036833780820191505090505b50905060028160008151811061048157610480610b29565b5b6020026020010181815250506007816001815181106104a3576104a2610b29565b5b602002602001018181525050600c816002815181106104c5576104c4610b29565b5b6020026020010181815250506011816003815181106104e7576104e6610b29565b5b60200260200101818152505060168160048151811061050957610508610b29565b5b60200260200101818152505060006005905060008360028111156105305761052f610a97565b5b90505b60008261053e610337565b6105489190610dd9565b90506000600184600d61055b9190610e0a565b610563610337565b61056d9190610dd9565b6105779190610e0a565b905084828151811061058c5761058b610b29565b5b602002602001015181901b8317925083806105a690610e60565b9450508484815181106105bc576105bb610b29565b5b60200260200101518583815181106105d7576105d6610b29565b5b60200260200101818152505050506000821161053357600160003373ffffffffffffffffffffffffffffffffffffffff1673ffffffffffffffffffffffffffffffffffffffff16815260200190815260200160002081908060018154018082558091505060019003906000526020600020016000909190919091505550505050565b6060600160003373ffffffffffffffffffffffffffffffffffffffff1673ffffffffffffffffffffffffffffffffffffffff1681526020019081526020016000208054806020026020016040519081016040528092919081815260200182805480156106e457602002820191906000526020600020905b8154815260200190600101908083116106d0575b5050505050905090565b60008054906101000a900473ffffffffffffffffffffffffffffffffffffffff1673ffffffffffffffffffffffffffffffffffffffff163373ffffffffffffffffffffffffffffffffffffffff161461077c576040517f08c379a000000000000000000000000000000000000000000000000000000000815260040161077390610ed5565b60405180910390fd5b806000806101000a81548173ffffffffffffffffffffffffffffffffffffffff021916908373ffffffffffffffffffffffffffffffffffffffff16021790555050565b60006003821660028111156107d7576107d6610a97565b5b9050919050565b600073ffffffffffffffffffffffffffffffffffffffff82169050919050565b6000610809826107de565b9050919050565b610819816107fe565b82525050565b60006020820190506108346000830184610810565b92915050565b600080fd5b6000819050919050565b6108528161083f565b811461085d57600080fd5b50565b60008135905061086f81610849565b92915050565b61087e816107fe565b811461088957600080fd5b50565b60008135905061089b81610875565b92915050565b600080604083850312156108b8576108b761083a565b5b60006108c685828601610860565b92505060206108d78582860161088c565b9150509250929050565b6108ea8161083f565b82525050565b600060208201905061090560008301846108e1565b92915050565b6003811061091857600080fd5b50565b60008135905061092a8161090b565b92915050565b6000602082840312156109465761094561083a565b5b60006109548482850161091b565b91505092915050565b600081519050919050565b600082825260208201905092915050565b6000819050602082019050919050565b6109928161083f565b82525050565b60006109a48383610989565b60208301905092915050565b6000602082019050919050565b60006109c88261095d565b6109d28185610968565b93506109dd83610979565b8060005b83811015610a0e5781516109f58882610998565b9750610a00836109b0565b9250506001810190506109e1565b5085935050505092915050565b60006020820190508181036000830152610a3581846109bd565b905092915050565b600060208284031215610a5357610a5261083a565b5b6000610a618482850161088c565b91505092915050565b600060208284031215610a8057610a7f61083a565b5b6000610a8e84828501610860565b91505092915050565b7f4e487b7100000000000000000000000000000000000000000000000000000000600052602160045260246000fd5b60038110610ad757610ad6610a97565b5b50565b6000819050610ae882610ac6565b919050565b6000610af882610ada565b9050919050565b610b0881610aed565b82525050565b6000602082019050610b236000830184610aff565b92915050565b7f4e487b7100000000000000000000000000000000000000000000000000000000600052603260045260246000fd5b7f4e487b7100000000000000000000000000000000000000000000000000000000600052601160045260246000fd5b6000610b928261083f565b9150610b9d8361083f565b925082821015610bb057610baf610b58565b5b828203905092915050565b6000610bc68261083f565b91507fffffffffffffffffffffffffffffffffffffffffffffffffffffffffffffffff8203610bf857610bf7610b58565b5b600182019050919050565b7f4e487b7100000000000000000000000000000000000000000000000000000000600052603160045260246000fd5b6000819050919050565b610c4d610c488261083f565b610c32565b82525050565b60008160601b9050919050565b6000610c6b82610c53565b9050919050565b6000610c7d82610c60565b9050919050565b610c95610c90826107fe565b610c72565b82525050565b6000610ca78286610c3c565b602082019150610cb78285610c3c565b602082019150610cc78284610c84565b601482019150819050949350505050565b600082825260208201905092915050565b7f506c656173652073656e64206d6f7265206d6f6e65792c206d696e696d756d2060008201527f302e303031206574686572000000000000000000000000000000000000000000602082015250565b6000610d45602b83610cd8565b9150610d5082610ce9565b604082019050919050565b60006020820190508181036000830152610d7481610d38565b9050919050565b7f4e487b7100000000000000000000000000000000000000000000000000000000600052604160045260246000fd5b7f4e487b7100000000000000000000000000000000000000000000000000000000600052601260045260246000fd5b6000610de48261083f565b9150610def8361083f565b925082610dff57610dfe610daa565b5b828206905092915050565b6000610e158261083f565b9150610e208361083f565b9250827fffffffffffffffffffffffffffffffffffffffffffffffffffffffffffffffff03821115610e5557610e54610b58565b5b828201905092915050565b6000610e6b8261083f565b915060008203610e7e57610e7d610b58565b5b600182039050919050565b7f556e697377617056323a20464f5242494444454e000000000000000000000000600082015250565b6000610ebf601483610cd8565b9150610eca82610e89565b602082019050919050565b60006020820190508181036000830152610eee81610eb2565b905091905056fea2646970667358221220d3d2eaadff09c8f75955bccd8a7419eecaaabcd6f9cc27b095168ec10bb6602664736f6c634300080f0033",
  "linkReferences": {},
  "deployedLinkReferences": {}
}